:020000040000FA
:02000200442890
:040004000034003490
:080008008207013402340334C5
:100010000434053406340734083409340A340B3404
:100020000C340D340E340F341034113412341334B4
:100030001434153416341734183419348207013443
:10004000073417340E34193415341134033418348A
:100050000A34103416340334093405341034163499
:1000600003340934053410341634033409340534A8
:10007000831203131430A000FA30A1000000A10B7A
:100080003E28A00B3C2808000130B000B1008316C8
:10009000031788018901C920831603131F308900C3
:1000A0008501880183120313A7010130B000B1005C
:1000B0008312031386018701850188018901382095
:1000C000091C5F2805140814A42064280718662852
:1000D000B82003110130A602031D6628A601A70A55
:1000E0000130880087187228B82003110130A60259
:1000F000031D7228A601A70A0330880007197E286D
:10010000B82003110130A602031D7E28A601A70A0C
:100110000730880087198A28B82003110130A60209
:10012000031D8A28A601A70A0F308800071A9628FF
:10013000B82003110130A602031D9628A601A70AC4
:100140001F308800880166280310B10D3108203C5B
:10015000031DB3280130B1000310B00D3008203C5E
:10016000031DB328442031088800300885000800AA
:10017000C320A500D42027081E20A502031D0800C7
:100180000130A6000800DF20031CC8280420031447
:10019000080083160313003086001F308700831287
:1001A00003131930A4000800831203131F308700C3
:1001B000382007081F3C031DD82886010800831239
:1001C0000313A301FE308600071CFC28A30A871C2A
:1001D000FC28A30A071DFC28A30A871DFC28A30AE4
:1001E000071EFC28A30A243023020318FA2803144C
:0E01F000060DE3280310FE2823080314080060
:02400E00F4209C
:02401000FF3E71
:00000001FF
