:020000040000FA
:020002009D2837
:040004000034003490
:080008008207013402340334C5
:100010000434053406340734083409340A340B3404
:100020000C340D340E340F341034113412341334B4
:100030001434153416341734183419348207013443
:1000400007340E34133417340034003400340034D1
:100050000034003400340034003400340034003400
:1000600000340034003400340034003400340034F0
:100070000800831203131430A000FA30A10000001E
:10008000A10B3F28A00B3D280800D4200310B10D80
:100090003108203C031D56280130B100CB2003104D
:1000A000B00D3008203C031D5628C02031088800C0
:1000B000300885000800031C5F2804200314080092
:1000C000382006081F3C031D6028870108008312A2
:1000D00003130130A3003708870006188728A30AF6
:1000E00086188728A30A06198728A30A861987284D
:1000F000A30A061A8728A30A2408230203188328C0
:100100000314070D6C28FE303708A3016C28230860
:10011000A5003508B9000030B8003808053EB90B15
:100120008E28053C3607B900013039021E20A50291
:10013000031D67280130A6000800831603178801F5
:100140008901831603131F3089008600870185010A
:100150008801831203130130B000B100B400B50070
:10016000B6001930B3001A30A4000030A700FE30EA
:10017000B700831203138701860185018801890175
:100180003820091CC0280514081467204520C528FC
:100190000000000000000130B50706303502031DE5
:1001A00008000030B50008000130B60706303602FE
:0A01B000031D08000030B60008002F
:02400E00F4209C
:02401000FF3E71
:00000001FF
