:020000040000FA
:02000200442890
:040004000034003490
:080008008207013402340334C5
:100010000434053406340734083409340A340B3404
:100020000C340D340E340F341034113412341334B4
:100030001434153416341734183419348207013443
:10004000073417340E34193415341134033418348A
:100050000A34103416340334093405341034163499
:1000600003340934053410341634033409340534A8
:10007000831203131430A000FA30A1000000A10B7A
:100080003E28A00B3C28080083160317880189012D
:10009000CB20831603131F3089008501880183124A
:1000A0000313A7010130B000B1001930B30083126F
:1000B0000313860187018501880189013820091C05
:1000C0005E2805140814B30B66285E28A620632852
:1000D00007186828BA2003110130A602031D6828FA
:1000E000A601A70A0130880087187428BA200311D6
:1000F0000130A602031D7428A601A70A0330880058
:1001000007198028BA2003110130A602031D802898
:10011000A601A70A0730880087198C28BA20031186
:100120000130A602031D8C28A601A70A0F30880003
:10013000071A9828BA2003110130A602031D982837
:10014000A601A70A1F308800880168280310B10D96
:100150003108203C031DB5280130B1000310B00D5B
:100160003008203C031DB5285E2031088800300887
:1001700085000800C520A500D62027081E20A5025E
:10018000031D08000130A6000800E120031CCA2856
:1001900004200314080083160313003086001F3068
:1001A0008700831203131930A4000800831203137D
:1001B0001F308700382007081F3C031DDA288601FE
:1001C000080083120313A301FE308600071CFE28DB
:1001D000A30A871CFE28A30A071DFE28A30A871D61
:1001E000FE28A30A071EFE28A30A243023020318B0
:1001F000FC280314060DE528031000292308031426
:020200000800F4
:02400E00F4209C
:02401000FF3E71
:00000001FF
