:020000040000FA
:1000000020288207013402340334043405340634D2
:100010000734083409340A340B340C340B340C34F0
:100020000D340E340E341034831203131430A00038
:10003000FA30A1000000A10B1A28A00B1828080014
:10004000831603178801890183160313880183121D
:100050000313860187018501880189013B20071868
:100060002F283520880046202F285020031C3A28AE
:1000700001200314080083160313003086001F308C
:100080008700831203131930A4000800831203139E
:100090000030860014200608003C031D4A28080092
:1000A00083120313A301FE308600071C6D28A30AE8
:1000B000871C6D28A30A071D6D28A30A871D6D28BC
:1000C000A30A071E6D28A30A2430230203186B28F5
:1000D0000314060D542803106F2823080314080086
:0400E00000340034B4
:02400E00F4209C
:02401000FF3E71
:00000001FF
