:020000040000FA
:1000000041288207013402340334043405340634B1
:100010000734083409340A340B340C340D340E34EC
:100020000F3410341134123413341434153416349C
:1000300017341834193482070134073417340E3456
:10004000193415341134033418340A341034163486
:1000500003340934053410341634033409340534B8
:100060001034163403340934053483120313143066
:10007000A000FA30A1000000A10B3B28A00B3928FA
:10008000080083160317880189018316031388016A
:100090008312031386018701850188018901A70165
:1000A000A020071851288F2003110130A602031D3C
:1000B0005128A601A70A0130880087185D288F20E3
:1000C00003110130A602031D5D28A601A70A033013
:1000D0008800071969288F2003110130A602031D2B
:1000E0006928A601A70A07308800871975288F207C
:1000F00003110130A602031D7528A601A70A0F30BF
:100100008800071A81288F2003110130A602031DE1
:100110008128A601A70A1F308800880151289A204B
:10012000A500AB2027081B20A502031D08000130F5
:10013000A6000800B620031C9F2801200314080015
:1001400083160313003086001F30870083120313C9
:100150001930A4000800831203131F3087003520D4
:1001600007081F3C031DAF288601080083120313F4
:10017000A301FE308600071CD328A30A871CD328BE
:10018000A30A071DD328A30A871DD328A30A071E85
:10019000D328A30A243023020318D1280314060D00
:0C01A000BA280310D52823080314080017
:0401AC0000340034E7
:02400E00F4209C
:02401000FF3E71
:00000001FF
